:020000040800F2
:1000000000000220ED3E0008810F0008830F000869
:10001000850F0008870F0008890F00080000000006
:100020000000000000000000000000008B0F00082E
:100030008D0F0008000000008F0F0008910F0008CE
:100040003D3F00083D3F00083D3F00083D3F0008A0
:100050003D3F00083D3F00083D3F00083D3F000890
:100060003D3F00083D3F00083D3F00083D3F000880
:100070003D3F00083D3F00083D3F00083D3F000870
:100080003D3F00083D3F00083D3F000800000000E4
:100090000000000000000000000000003D3F0008DC
:1000A0003D3F00083D3F00083D3F00083D3F000840
:1000B000990F0008A90F0008B90F00083D3F00087C
:1000C0003D3F00083D3F00083D3F00083D3F000820
:1000D0003D3F00083D3F00083D3F00080000000094
:1000E0003D3F00083D3F00083D3F00080000000084
:1000F0000000000000000000000000003D3F00087C
:10010000000000003D3F00083D3F00083D3F000863
:1001100000000000000000000000000000000000DF
:100120003D3F00083D3F00083D3F00083D3F0008BF
:100130003D3F00080000000000000000000000003B
:100140000000000000000000000000003D3F00082B
:100150003D3F00083D3F00083D3F00083D3F00088F
:100160003D3F00083D3F0008000000000000000087
:10017000000000000000000000000000000000007F
:10018000000000003D3F00080000000000000000EB
:080190003D3F00083D3F00085F
:1001980081F0004102E000BF83F0004330B54FEA30
:1001A80041044FEA430594EA050F08BF90EA020F9D
:1001B8001FBF54EA000C55EA020C7FEA645C7FEA30
:1001C800655C00F0E2804FEA5454D4EB5555B8BF53
:1001D8006D420CDD2C4480EA020281EA030382EAC4
:1001E800000083EA010180EA020281EA0303362D56
:1001F80088BF30BD11F0004F4FEA01314FF4801C29
:100208004CEA113102D0404261EB410113F0004F3A
:100218004FEA03334CEA133302D0524263EB4303F1
:1002280094EA050F00F0A780A4F10104D5F1200E8F
:100238000DDB02FA0EFC22FA05F2801841F10001EA
:1002480003FA0EF2801843FA05F359410EE0A5F1BE
:1002580020050EF1200E012A03FA0EFC28BF4CF0EF
:10026800020C43FA05F3C01851EBE37101F00045A5
:1002780007D54FF0000EDCF1000C7EEB00006EEBB2
:100288000101B1F5801F1BD3B1F5001F0CD349083C
:100298005FEA30004FEA3C0C04F101044FEA445293
:1002A80012F5800F80F09A80BCF1004F08BF5FEA1A
:1002B800500C50F1000041EB045141EA050130BDFA
:1002C8005FEA4C0C404141EB0101013C28BFB1F50C
:1002D800801FE9D291F0000F04BF01460020B1FA57
:1002E80081F308BF2033A3F10B03B3F120020CDA2A
:1002F8000C3208DD02F1140CC2F10C0201FA0CF008
:1003080021FA02F10CE002F11402D8BFC2F1200C6C
:1003180001FA02F120FA0CFCDCBF41EA0C01904022
:10032800E41AA2BF01EB0451294330BD6FEA04046B
:100338001F3C1CDA0C340EDC04F11404C4F1200256
:1003480020FA04F001FA02F340EA030021FA04F368
:1003580045EA030130BDC4F10C04C4F1200220FABF
:1003680002F001FA04F340EA0300294630BD21FAFD
:1003780004F0294630BD94F0000F83F4801306BFC3
:1003880081F480110134013D4EE77FEA645C18BFB7
:100398007FEA655C29D094EA050F08BF90EA020F4E
:1003A80005D054EA000C04BF1946104630BD91EA46
:1003B800030F1EBF0021002030BD5FEA545C05D149
:1003C8004000494128BF41F0004130BD14F5800488
:1003D8003CBF01F5801130BD01F0004545F0FE41FC
:1003E80041F470014FF0000030BD7FEA645C1ABF31
:1003F800194610467FEA655C1CBF0B46024650EA68
:10040800013406BF52EA033591EA030F41F4002193
:1004180030BD00BF90F0000F04BF0021704730B519
:100428004FF4806404F132044FF000054FF00001EE
:1004380050E700BF90F0000F04BF0021704730B5AF
:100448004FF4806404F1320410F0004548BF404284
:100458004FF000013EE700BF42004FEAE2014FEAD9
:1004680031014FEA02701FBF12F07F4393F07F4FB4
:1004780081F06051704732F07F4208BF704793F0B7
:100488007F4F04BF41F40021704730B54FF46074CA
:1004980001F0004521F000411CE700BF50EA0102CD
:1004A80008BF704730B54FF000050AE050EA010276
:1004B80008BF704730B511F0004502D5404261EBE6
:1004C80041014FF4806404F132045FEA915C3FF427
:1004D800D8AE4FF003025FEADC0C18BF03325FEAC4
:1004E800DC0C18BF033202EBDC02C2F1200300FA75
:1004F80003FC20FA02F001FA03FE40EA0E0021FA9A
:1005080002F11444BDE600BF70B54FF0FF0C4CF487
:10051800E06C1CEA11541DBF1CEA135594EA0C0F39
:1005280095EA0C0F00F0DEF82C4481EA030621EA74
:100538004C5123EA4C5350EA013518BF52EA0335AF
:1005480041F4801143F4801338D0A0FB02CE4FF061
:100558000005E1FB02E506F00042E0FB03E54FF091
:100568000006E1FB03569CF0000F18BF4EF0010E89
:10057800A4F1FF04B6F5007F64F5407404D25FEA85
:100588004E0E6D4146EB060642EAC62141EA555138
:100598004FEAC52040EA5E504FEACE2EB4F1FD0C7A
:1005A80088BFBCF5E06F1ED8BEF1004F08BF5FEAF8
:1005B800500E50F1000041EB045170BD06F00046AA
:1005C80046EA010140EA020081EA0301B4EB5C0457
:1005D800C2BFD4EB0C0541EA045170BD41F480114F
:1005E8004FF0000E013C00F3AB8014F1360FDEBF74
:1005F800002001F0004170BDC4F10004203C35DA50
:100608000C341BDC04F11404C4F1200500FA05F3D2
:1006180020FA04F001FA05F240EA020001F0004273
:1006280021F0004110EBD37021FA04F642EB0601E9
:100638005EEA430E08BF20EAD37070BDC4F10C0413
:10064800C4F1200500FA04F320FA05F001FA04F2D7
:1006580040EA020001F0004110EBD37041F10001C3
:100668005EEA430E08BF20EAD37070BDC4F12005CE
:1006780000FA05F24EEA020E20FA04F301FA05F236
:1006880043EA020321FA04F001F0004121FA04F2DE
:1006980020EA020000EBD3705EEA430E08BF20EAAE
:1006A800D37070BD94F0000F0FD101F000464000E8
:1006B80041EB010111F4801F08BF013CF7D041EA6A
:1006C800060195F0000F18BF704703F0004652006E
:1006D80043EB030313F4801F08BF013DF7D043EA3F
:1006E8000603704794EA0C0F0CEA135518BF95EAF5
:1006F8000C0F0CD050EA410618BF52EA4306D1D17C
:1007080081EA030101F000414FF0000070BD50EA9A
:10071800410606BF1046194652EA430619D094EA24
:100728000C0F02D150EA013613D195EA0C0F05D10E
:1007380052EA03361CBF104619460AD181EA030162
:1007480001F0004141F0FE4141F470014FF000001A
:1007580070BD41F0FE4141F4780170BD70B54FF0B5
:10076800FF0C4CF4E06C1CEA11541DBF1CEA135535
:1007780094EA0C0F95EA0C0F00F0A7F8A4EB050417
:1007880081EA030E52EA03354FEA013100F088800E
:100798004FEA03334FF0805545EA131343EA1263D7
:1007A8004FEA022245EA111545EA10654FEA00268C
:1007B8000EF000419D4208BF964244F1FD0404F545
:1007C800407402D25B084FEA3202B61A65EB0305A1
:1007D8005B084FEA32024FF480104FF4002CB6EB5E
:1007E800020E75EB030E22BFB61A754640EA0C00DE
:1007F8005B084FEA3202B6EB020E75EB030E22BF1E
:10080800B61A754640EA5C005B084FEA3202B6EB5E
:10081800020E75EB030E22BFB61A754640EA9C001D
:100828005B084FEA3202B6EB020E75EB030E22BFED
:10083800B61A754640EADC0055EA060E18D04FEAAB
:10084800051545EA16754FEA06164FEAC30343EA4B
:1008580052734FEAC2025FEA1C1CC0D111F4801F18
:100868000BD141EA00014FF000004FF0004CB6E711
:1008780011F4801F04BF01430020B4F1FD0C88BFB0
:10088800BCF5E06F3FF6AFAEB5EB030C04BFB6EBBB
:10089800020C5FEA500C50F1000041EB045170BDAE
:1008A8000EF0004E4EEA113114EB5C04C2BFD4EBDB
:1008B8000C0541EA045170BD41F480114FF0000E5F
:1008C800013C90E645EA060E8DE60CEA135594EADB
:1008D8000C0F08BF95EA0C0F3FF43BAF94EA0C0FDE
:1008E8000AD150EA01347FF434AF95EA0C0F7FF453
:1008F80025AF104619462CE795EA0C0F06D152EAA7
:1009080003353FF4FDAE1046194622E750EA41068A
:1009180018BF52EA43067FF4C5AE50EA41047FF49B
:100928000DAF52EA43057FF4EBAE12E74FEA4102FE
:10093800B2F1E04324BFB3F5001CDCF1FE5C0DD935
:1009480001F0004C4FEAC0024CEA5070B2F1004F7F
:1009580040EB830008BF20F00100704711F0804F82
:1009680021D113F13872BCBF01F00040704741F447
:1009780080114FEA5252C2F11802C2F1200C10FA4B
:100988000CF320FA02F018BF40F001004FEAC1232F
:100998004FEAD32303FA0CFC40EA0C0023FA02F3D3
:1009A8004FEA4303CCE77FEA625307D150EA0133A9
:1009B8001EBF4FF0FE4040F44000704701F0004079
:1009C80040F0FE4040F40000704700BF53B94AB9F8
:1009D800002908BF00281CBF4FF0FF314FF0FF303F
:1009E80000F00CB8ADF1080C6DE904CE03F0D0FAB4
:1009F800DDF804E0DDE9022304B07047704700BF6A
:100A08000348044B834202D0034B03B11847704795
:100A1800E8000020E8000020000000000548064B20
:100A28001B1AD90F01EBA301491002D0034B03B1E4
:100A380018477047E8000020E80000200000000088
:100A480010B5064C237843B9FFF7DAFF044B13B10E
:100A58000448AFF300800123237010BDE800002094
:100A6800000000005442000808B5054B1BB10549B9
:100A78000548AFF30080BDE80840FFF7CFBF00BFCF
:100A880000000000EC00002054420008F0B58BB0D4
:100A980000240594069407940894099401942B4B18
:100AA8001A6B42F004021A631A6B02F004020192F4
:100AB800019A02941A6B42F080021A631A6B02F0D0
:100AC80080020292029A03941A6B42F001021A639E
:100AD8001A6B02F001020392039A04941A6B42F013
:100AE80002021A631B6B03F002030493049B184F62
:100AF80022464FF42041384601F080F9154D224630
:100B08004FF48061284601F079F94FF420430593AA
:100B1800012606960794089405A9384601F08AF834
:100B28004FF48063059306960794089405A9284610
:100B380001F080F84FF4704305930694079605A9D1
:100B4800284601F077F80BB0F0BD00BF003802402E
:100B5800000802400004024072B6FEE700B585B006
:100B6800002300930193029303931448144A0260EC
:100B78004FF48032426083600361037680F820304E
:100B8800C362104A8262C3600122C26180F83030B9
:100B9800426100F027FC68B9082300930123019300
:100BA800002302936946054800F048FC20B905B0C7
:100BB8005DF804FBFFF7D0FFFFF7CEFF78020020B7
:100BC800002001400100000F00B58BB00023069300
:100BD8000793089309930493059300930193029351
:100BE800039325484FF0804202606322426083608D
:100BF8004FF0FF32C2600361836102F09DF968BB68
:100C08004FF48053069306A91B4802F05EFB38BBDD
:100C1800194802F0E9F928BB00230493059304A9B5
:100C2800154802F005FDF8B900220092012301934E
:100C3800029203926946104802F0D4FAB0B904222D
:100C480069460D4802F0CEFA90B9082269460A486A
:100C580002F0C8FA70B90BB05DF804FBFFF77CFF2F
:100C6800FFF77AFFFFF778FFFFF776FFFFF774FFCC
:100C7800FFF772FFFFF770FFDC01002008B50A4894
:100C88000A4B03600A4B436000238360C3604FF440
:100C98008042026143618361C361036201F020FC09
:100CA80000B908BDFFF758FF240200200054004097
:100CB800A086010000B58FB000230A930B930C9314
:100CC8000D93089309930193029303930493059357
:100CD800069307932248234A0260436083604FF6D5
:100CE800FF72C2600361836102F026F958BB4FF4BA
:100CF80080530A930AA91A4802F0E7FA28BB184851
:100D080002F046F918BB00230893099308A9144870
:100D180002F08EFCE8B9602301930022029203924C
:100D2800059201A90E4802F0B9F9A0B904220DEB09
:100D380002010B4802F0B2F978B9094800F036FA16
:100D48000FB05DF804FBFFF707FFFFF705FFFFF79C
:100D580003FFFFF701FFFFF7FFFEFFF7FDFE00BFF0
:100D6800940100200004004000B58FB000230A93CE
:100D78000B930C930D930893099301930293039398
:100D880004930593069307932248234A026043601D
:100D980083604FF6FF72C2600361836102F0CCF892
:100DA80058BB4FF480530A930AA91A4802F08DFAE7
:100DB80028BB184802F0ECF818BB002308930993E5
:100DC80008A9144802F034FCE8B960230193002311
:100DD800029303930593082201A90E4802F05EF9D5
:100DE80098B90C2201A90B4802F058F978B90948BA
:100DF80000F0DCF90FB05DF804FBFFF7ADFEFFF77C
:100E0800ABFEFFF7A9FEFFF7A7FEFFF7A5FEFFF76A
:100E1800A3FE00BF4C0100200008004008B50A48A6
:100E28000A4B03604FF4E133436000238360C360DF
:100E380003610C2242618361C36102F0C1FC00B905
:100E480008BDFFF789FE00BF040100200010014023
:100E580000B595B03022002108A803F091F80023CE
:100E68000393049305930693079301931F4A116C08
:100E780041F080511164126C02F080520192019A83
:100E880002931B4B1A6842F440421A601B6803F431
:100E980040430293029B012308934FF48033099344
:100EA80002230E934FF480020F920C2210926022BC
:100EB800119212930423139308A800F095FB88B9A4
:100EC8000F23039302230493002305934FF48052C6
:100ED80006920793032103A800F0D6FD20B915B0A8
:100EE8005DF804FBFFF738FEFFF736FE00380240D6
:100EF8000070004000B593B001F028F8FFF7A8FF94
:100F0800FFF7C4FDFFF72AFEFFF75EFEFFF7B6FE08
:100F1800FFF7D0FEFFF728FFFFF780FF02F08AFCFB
:100F280007E0134802F0A4FC8DF83C00322001F0E1
:100F380039F89DF83C30682BF3D10E4C002120463F
:100F480002F0CAFA0421204602F0C6FA0821204617
:100F580002F0C2FA0821204602F0BEFA02F0BAFEF8
:100F68006946034802F0E8FD642001F01BF8F5E744
:100F780024020020DC010020FEE7FEE7FEE7FEE792
:100F8800FEE770477047704708B500F0F9FF08BDE5
:100F980008B5024801F0CBFE08BD00BFDC01002007
:100FA80008B5024801F0C3FE08BD00BF9401002047
:100FB80008B5024801F0BBFE08BD00BF4C01002087
:100FC80082B0002100910B4B5A6C42F480425A6463
:100FD8005A6C02F480420092009A01911A6C42F015
:100FE80080521A641B6C03F080530193019B02B07A
:100FF800704700BF0038024000B589B00023039352
:101008000493059306930793026803F1804303F55D
:1010180090339A4202D009B05DF804FB0021019197
:1010280003F58C335A6C42F480725A645A6C02F499
:1010380080720192019A02911A6B42F002021A63BD
:101048001B6B03F002030293029B01230393032308
:10105800049303A9014800F0EDFDDCE70004024019
:1010680030B589B00023039304930593069307933F
:101078000268144B9A4201D009B030BD0025019591
:10108800114C236B43F002032363236B03F0020329
:101098000193019BC0230393122304930323069314
:1010A8000423079303A9094800F0C4FD0295236CA3
:1010B80043F400132364236C03F400130293029B8C
:1010C800DAE700BF00540040003802400004024044
:1010D80010B58AB0002305930693079308930993E4
:1010E8000368B3F1804F07D02C4A93422ED02C4A84
:1010F80093423FD00AB010BD0024019403F50E338B
:101108001A6C42F001021A641A6C02F00102019290
:10111800019A02941A6B42F001021A631B6B03F0E6
:1011280001030293029B07230593022306930123DD
:10113800099305A91B4800F07DFD224621461C2085
:1011480000F0B6FE1C2000F0C3FED3E70021039197
:10115800154B1A6C42F002021A641B6C03F002036E
:101168000393039B0A461D2000F0A2FE1D2000F0F9
:10117800AFFEBFE7002104910B4B1A6C42F004024A
:101188001A641B6C03F004030493049B0A461E2094
:1011980000F08EFE1E2000F09BFEABE7000400402E
:1011A80000080040000002400038024000B589B045
:1011B80000230393049305930693079303681B4A3C
:1011C800934205D01A4A934218D009B05DF804FB3F
:1011D80000230193174B1A6B42F002021A631B6B30
:1011E80003F002030193019B30230393022304932A
:1011F800079303A9104800F01DFDE6E700230293BA
:101208000C4B1A6B42F002021A631B6B03F00203C9
:101218000293029B4FF440730393022304930793B2
:1012280003A9054800F006FDCFE700BF0004004011
:1012380000080040003802400004024000B589B0B0
:10124800002303930493059306930793026803F11D
:10125800804303F588339A4202D009B05DF804FB55
:101268000021019103F594335A6C42F010025A643C
:101278005A6C02F010020192019A02911A6B42F024
:1012880001021A631B6B03F001030293029B4FF4E4
:10129800C06303930223049303230693072307934E
:1012A80003A9024800F0C6FCD7E700BF00000240CF
:1012B8004A4B5A6822F440325A605A6841680A43D5
:1012C8005A600268536823F4807353600268536855
:1012D800016943EA012353600268536823F04073AD
:1012E80053600268536881680B43536002689368CF
:1012F80023F40063936002689368C1680B439360AA
:10130800826A374B9A4257D00268936823F0706319
:10131800936002689368816A0B43936002689368DC
:1013280023F04053936002689368C16A0B4393604B
:101338000268936823F00203936002689368017E51
:1013480043EA4103936090F82030002B3FD00268B5
:10135800536843F4006353600268536823F460439E
:10136800536001684B68426A013A43EA42334B6072
:101378000268D36A23F47003D3620168CB6AC26936
:10138800013A43EA0253CB620268936823F400737C
:1013980093600268936890F8301043EA41239360A1
:1013A8000268936823F480639360026893684169D4
:1013B80043EA8123936070470268936823F070635F
:1013C80093600268936823F040539360B0E7026823
:1013D800536823F400635360CAE700BF0023014049
:1013E8000100000F38B310B50446036C43B1236CF9
:1013F80013F0100F0BD00120002384F83C3010BDEF
:10140800FFF7FAFD0023636484F83C30EFE7236CB0
:1014180023F4885323F0020343F002032364204695
:10142800FFF746FF00206064236C23F0030343F0BA
:1014380001032364E0E701207047000030B482B064
:101448000022019290F83C20012A00F0C080034657
:10145800012280F83C200A68092A40D90468E0681B
:1014680092B202EB42021E3A4FF0070C0CFA02F25B
:1014780020EA0202E2601C68E0680A8802EB420285
:101488001E3A8D6805FA02F20243E2604A68062AAB
:101498003CD81C68606B02EB8202053A4FF01F0CC7
:1014A8000CFA02F220EA020262631C68606B4A6866
:1014B80002EB8202053AB1F800C00CFA02F20243CC
:1014C80062631868434A904250D01868414A904273
:1014D80059D0002083F83C0002B030BC7047046843
:1014E800206992B202EB42024FF0070C0CFA02F2AA
:1014F80020EA020222611C6820690A8802EB420283
:101508008D6805FA02F202432261BFE70C2A16D859
:101518001D68286B02EB8202233A1F2404FA02F2A8
:1015280020EA02022A631D68286B4A6802EB8202DD
:10153800233A0C8804FA02F202432A63C1E71D68C1
:10154800E86A02EB8202413A1F2404FA02F220EA16
:101558000202EA621D68E86A4A6802EB8202413ABE
:101568000C8804FA02F20243EA62AAE70A68122A1D
:10157800ABD1194A506820F400005060506840F41C
:1015880080005060A1E70A681448824201D0112AFD
:101598009FD1114A506820F480005060506840F490
:1015A8000000506009680D4A914292D10C4A1268B5
:1015B8000C49A1FB0212920C02EB8202520001922A
:1015C800019A002A85D0019A013A0192F8E702208F
:1015D80082E700BF002001400023014012000010F4
:1015E8000800002083DE1B43002800F0E08170B56E
:1015F80082B00446036813F0010F3BD09F4B9B68F1
:1016080003F00C03042B2CD09C4B9B6803F00C03B9
:10161800082B21D06368B3F5803F4FD0B3F5A02FD6
:1016280052D0964B1A6822F480321A601A6822F453
:1016380080221A606368002B50D000F0ADFC05468C
:101648008E4B1B6813F4003F14D100F0A5FC401B1F
:101658006428F5D90320B1E1884B5B6813F4800F47
:10166800D8D0864B1B6813F4003F03D06368002B67
:1016780000F09F81236813F0020F54D07F4B9B68C2
:1016880013F00C0F3ED07D4B9B6803F00C03082B26
:1016980033D0E368002B68D0794B01221A6000F040
:1016A8007BFC0546754B1B6813F0020F54D100F004
:1016B80073FC401B0228F5D903207FE16F4A1368A9
:1016C80043F480331360B5E76C4B1A6842F4802208
:1016D8001A601A6842F480321A60ABE700F05CFCCA
:1016E8000546664B1B6813F4003FC3D000F054FC5A
:1016F800401B6428F5D9032060E1604B5B6813F454
:10170800800FC6D15D4B1B6813F0020F03D0E3684E
:10171800012B40F05081594A136823F0F8032169DE
:1017280043EAC1031360236813F0080F42D06369CA
:101738006BB3534B0122C3F8802E00F02DFC0546F5
:101748004E4B5B6F13F0020F34D100F025FC401BA9
:101758000228F5D9032031E1484A136823F0F80339
:10176800216943EAC1031360DDE7454B00221A6093
:1017780000F012FC0546414B1B6813F0020FD2D053
:1017880000F00AFC401B0228F5D9032016E13C4B67
:101798000022C3F8802E00F0FFFB0546374B5B6F35
:1017A80013F0020F06D000F0F7FB401B0228F5D912
:1017B800032003E1236813F0040F77D02F4B1B6C31
:1017C80013F0805F33D1002301932C4B1A6C42F045
:1017D80080521A641B6C03F080530193019B01250E
:1017E800284B1B6813F4807F23D0A368012B34D0C7
:1017F800052B38D0214B1A6F22F001021A671A6F95
:1018080022F004021A67A368002B3DD000F0C4FB45
:1018180006461A4B1B6F13F0020F46D100F0BCFBB3
:10182800801B41F288339842F3D90320C6E0002593
:10183800D6E7144A136843F48073136000F0ACFBD6
:101848000646104B1B6813F4807FCED100F0A4FB32
:10185800801B0228F5D90320B0E0084A136F43F033
:1018680001031367CFE7054B1A6F42F004021A67AA
:101878001A6F42F001021A67C5E700BF003802403C
:10188800000047420070004000F086FB0646524BBD
:101898001B6F13F0020F08D000F07EFB801B41F293
:1018A80088339842F3D9032088E0EDB9A369002B67
:1018B80000F08380484A926802F00C02082A51D04E
:1018C800022B17D0454B00221A6600F065FB044630
:1018D800414B1B6813F0007F42D000F05DFB001BFA
:1018E8000228F5D9032069E03B4A136C23F08053A2
:1018F8001364DBE7394B00221A6600F04DFB0546FE
:10190800354B1B6813F0007F06D000F045FB401BE9
:101918000228F5D9032051E0E369226A1343626A79
:1019280043EA8213A26A5208013A43EA0243E26A8E
:1019380043EA0263284A5360284B01221A6600F0E2
:101948002BFB0446244B1B6813F0007F06D100F0E4
:1019580023FB001B0228F5D903202FE000202DE0EF
:1019680000202BE0012B2BD01B4B5B6803F480017C
:10197800E269914226D103F03F02216A8A4223D1CB
:10198800616A47F6C0721A40B2EB811F1ED103F498
:101998004031A26A5208013AB1EB024F18D103F064
:1019A8007063E26AB3EB026F14D1002006E00120F5
:1019B8007047012002E0012000E0002002B070BD65
:1019C8000120FBE70120F9E70120F7E70120F5E70F
:1019D8000120F3E70120F1E7003802400000474208
:1019E80008B5264B9B6803F00C03042B41D0082B49
:1019F80041D1224B5A6802F03F025B6813F4800F12
:101A080012D01E4B5968C1F388111D480023A1FB51
:101A18000001FEF7DBFF194B5B68C3F30143013399
:101A28005B00B0FBF3F008BD144B5868C0F3881096
:101A38004FEA401CBCEB000C6EEB0E0E4FEA8E1307
:101A480043EA9C634FEA8C11B1EB0C0163EB0E0384
:101A5800DB0043EA5173C90011EB000C43F10003AA
:101A6800990200234FEA8C2041EA9C51FEF7AEFF11
:101A7800D1E70348D7E70348D5E700BF003802405D
:101A880040787D010024F400002800F09B8070B5A8
:101A98000D4604464F4B1B6803F007038B4208D2E0
:101AA800CBB24C4A1370136803F007038B4240F023
:101AB8008B80236813F0020F17D013F0040F04D0A3
:101AC800454A936843F4E0539360236813F0080F82
:101AD80004D0414A936843F4604393603E4A936854
:101AE80023F0F003A1680B439360236813F0010F00
:101AF80032D06368012B21D09A1E012A25D9364A93
:101B0800126812F0020F61D033498A6822F003028A
:101B180013438B6000F040FA06462F4B9B6803F096
:101B28000C036268B3EB820F16D000F035FA801B05
:101B380041F288339842F0D9032042E0264A1268DD
:101B480012F4003FE0D101203BE0234A126812F072
:101B5800007FD9D1012034E01E4B1B6803F0070336
:101B6800AB4207D9EAB21B4B1A701B6803F0070394
:101B7800AB422DD1236813F0040F06D0164A9368A0
:101B880023F4E053E1680B439360236813F0080FD4
:101B980007D0114A936823F46043216943EAC103DB
:101BA8009360FFF71DFF0C4B9B68C3F303130B4AAD
:101BB800D35CD8400A4B18600A4B186800F0A0F9AB
:101BC800002070BD012070470120FAE70120F8E7E6
:101BD8000120F6E7003C0240003802407442000849
:101BE8000800002004000020014B1868704700BF5F
:101BF8000800002008B5FFF7F7FF044B9B68C3F304
:101C08008223034AD35CD84008BD00BF0038024095
:101C18006C42000808B5FFF7E7FF044B9B68C3F365
:101C28004233034AD35CD84008BD00BF00380240A5
:101C38006C42000800230F2B00F2D78070B582B0E9
:101C480065E085684FEA430E032404FA0EF425EA9A
:101C58000405CC6804FA0EF42C438460446824EA32
:101C680002044A68C2F300129A40224342605CE0D0
:101C7800DC08083450F8242003F00705AD004FF0C5
:101C88000F0E0EFA05FE22EA0E0E0A69AA4042EA73
:101C98000E0240F824205CE0042200E0002202FA50
:101CA8000EF22A430234514D45F82420504A9468D4
:101CB8006FEA0C0224EA0C054E6816F4801F01D066
:101CC8004CEA04054A4CA560E46802EA04054E683B
:101CD80016F4001F01D04CEA0405454CE560646821
:101CE80002EA04054E6816F4003F01D04CEA0405E8
:101CF8003F4C6560246822404D6815F4803F01D050
:101D08004CEA04023A4C226001330F2B6BD80122B3
:101D18009A400C6804EA020C32EA0404F4D14C68D4
:101D280004F00304013C012C8BD94A6802F0030239
:101D3800032A09D0C4685D000322AA4024EA0204E9
:101D48008A68AA402243C2604A6802F00302022A53
:101D58008ED004684FEA430E032202FA0EF224EAF8
:101D680002044A6802F0030202FA0EF222430260F9
:101D78004A6812F4403FC7D0002201921D4A546CB1
:101D880044F480445464526C02F480420192019AF3
:101D98009C08A51C154A52F8255003F0030E4FEA7B
:101DA8008E0E0F2202FA0EF225EA0205124A90421E
:101DB8003FF474AF02F5806290420ED002F5806263
:101DC80090420CD002F5806290420AD002F58062FF
:101DD80090423FF461AF072261E701225FE70222E8
:101DE8005DE703225BE702B070BD70470038014031
:101DF800003C014000380240000002400AB1816105
:101E08007047090481617047002807DB00F01F0252
:101E1800400901239340024A42F82030704700BF2E
:101E280000E100E0002808DB0901C9B200F16040C8
:101E380000F5614080F80013704700F00F000901B9
:101E4800C9B2014B1954704714ED00E000B500F019
:101E58000700C0F1070CBCF1040F28BF4FF0040CB9
:101E6800031D062B0FD9C31E4FF0FF3E0EFA0CF0D0
:101E780021EA000199400EFA03FE22EA0E0241EA25
:101E880002005DF804FB0023EEE70000074AD36870
:101E980023F4E0631B041B0C000200F4E06003431E
:101EA80043F0BF6343F40033D360704700ED00E0B4
:101EB80010B50446054BD868C0F30220FFF7C6FFEB
:101EC80001462046FFF7AEFF10BD00BF00ED00E061
:101ED80008B5FFF799FF08BD0138B0F1807F0BD234
:101EE8004FF0E0235861054AF02182F823100020C2
:101EF800986107221A6170470120704700ED00E0E1
:101F080010B504460E4B1A784FF47A73B3FBF2F30C
:101F18000C4A1068B0FBF3F0FFF7DEFF68B90F2C2E
:101F280001D901200AE0002221464FF0FF30FFF7D7
:101F3800BFFF054B1C60002000E0012010BD00BF62
:101F480000000020080000200400002008B50B4B0A
:101F58001A6842F400721A601A6842F480621A60C1
:101F68001A6842F480721A600320FFF78FFF0F206F
:101F7800FFF7C6FFFFF724F8002008BD003C024029
:101F8800034A1168034B1B780B441360704700BF6A
:101F9800C002002000000020014B1868704700BFF5
:101FA800C002002038B50446FFF7F6FF0546B4F135
:101FB800FF3F02D0044B1B781C44FFF7EDFF401B8A
:101FC800A042FAD338BD00BF0000002003685A6958
:101FD80012F4806F01D1002070476FF480625A615B
:101FE80000230363202280F83D2080F83E30026CF5
:101FF80042F00402026480F83C30012070472DE969
:10200800F04106460C46174698463BE0FFF7C4FFEA
:10201800069BC01A404502D8B8F1000F32D1012DF5
:1020280018D033689B6924EA03039BB2B3FA83F39D
:102038005B099F4226D100233363202286F83D2086
:1020480086F83E30326C42F02002326486F83C302A
:10205800012027E033685B6924EA03039BB2B3FAE3
:1020680083F35B09E5E733685B6924EA030C1FFA2D
:102078008CFCBCFA8CFC4FEA5C1C674511D1B8F1AA
:10208800FF3FC3D1C4F30745012DECD033689B69EA
:1020980024EA030C1FFA8CFCBCFA8CFC4FEA5C1C8B
:1020A800EBE70020BDE8F0812DE9F84305460E4630
:1020B8009046994653E01A6842F400721A602B68F9
:1020C8006FF480625A6100232B63202285F83D203B
:1020D80085F83E302A6C42F004022A6485F83C30C8
:1020E80001204AE0FFF758FFA0EB0900404502D85D
:1020F800B8F1000F33D1012F17D02B689B6926EA5E
:1021080003039BB2003B18BF012343B300232B6397
:10211800202285F83D2085F83E302A6C42F02002C6
:102128002A6485F83C30012027E02B685B6926EAA1
:1021380003039BB2003B18BF0123E6E72B689C69A9
:1021480026EA0404A4B2003C18BF0124A4B12B68F9
:102158005A6912F4806FAED1B8F1FF3FC2D1C6F30D
:102168000747012FEAD12B685C6926EA0404A4B268
:10217800003C18BF0124E9E70020BDE8F88370B5EA
:1021880004460D46164623685B6913F0800F21D17B
:102198002046FFF71BFFF8B9B5F1FF3FF3D0FFF773
:1021A800FBFE801BA84201D8002DECD123685B6997
:1021B80013F0800FE7D100232363202284F83D2009
:1021C80084F83E30226C42F02002226484F83C30CD
:1021D800012000E0002070BD0120FCE72DE9F0435C
:1021E80085B004460D4691461F46DDF830800D9EA9
:1021F8000368196841F4807119600096434600220B
:102208004FF00111FFF7FBFE60B9236805F0FE05EA
:102218001D613346424626492046FFF745FF68B10F
:10222800012008E023681B6813F4807F02D04FF474
:1022380000732364032005B0BDE8F08300230393F3
:1022480023685A6903929B690393039B324641466C
:102258002046FFF794FF30B9012F0FD123685FFAAA
:1022680089F61E61E7E7236C042B01D00120E2E721
:102278002268136843F400731360F7E723684FEA92
:1022880019221A61324641462046FFF778FF20B9E5
:1022980023685FFA89F61E61CDE7236C042B01D011
:1022A8000120C8E72268136843F400731360F7E756
:1022B800020001002DE9F04784B004460D46164699
:1022C80099460C9FDDF834800268136843F48063F4
:1022D80013600368196841F480711960CDF80080B3
:1022E8003B4600224FF00111FFF789FE70B95FFAF3
:1022F80085FA236805F0FE051D6143463A464149C3
:102308002046FFF7D1FE68B1012008E023681B686A
:1023180013F4807F02D04FF400732364032004B0C9
:10232800BDE8F0870023039323685A6903929B69E9
:102338000393039B424639462046FFF720FF80B9A6
:10234800B9F1010F18D12368F6B21E614246394629
:102358002046FFF714FF68B3236C042B24D0012018
:10236800DDE7236C042B01D00120D8E7226813682D
:1023780043F400731360F7E72368320A1A61424690
:1023880039462046FFF7FBFE18B92368F6B21E61EE
:10239800DCE7236C042B01D00120C0E72268136816
:1023A80043F400731360F7E72268136843F400737B
:1023B8001360D4E72268136843F480731360CDF880
:1023C80000803B4600224FF001112046FFF717FE20
:1023D80068B922684AF00103136143463A4609493D
:1023E8002046FFF761FE002899D0012097E723686F
:1023F8001B6813F4807F02D04FF40073236403201A
:102408008DE700BF0200010070B504460D46164670
:1024180023685B6913F0040F21D12046FFF7D6FD2E
:10242800F8B9B5F1FF3FF3D0FFF7B6FD801BA8421E
:1024380001D8002DECD123685B6913F0040FE7D1B4
:1024480000232363202284F83D2084F83E30226C48
:1024580042F02002226484F83C30012000E0002091
:1024680070BD0120FCE770B504460D46164614E021
:102478006FF010025A6100232363202284F83D2064
:1024880084F83E30226C226484F83C30012025E038
:1024980023685B6913F0400F10D02368586910F067
:1024A800400F1AD1586910F0100FE1D1FFF774FDF1
:1024B800801BA842ECD8002DEFD1E9E70023236365
:1024C800202284F83D2084F83E30226C42F020021D
:1024D800226484F83C30012000E0002070BD000038
:1024E800002800F0CC8070B5044690F83D30002BF1
:1024F80077D0242384F83D302268136823F0010341
:1025080013602268136843F4004313602268136859
:1025180023F400431360FFF76DFB62685A4B9A423D
:1025280064D85A4B98428CBF00230123002B40F0FB
:10253800A8805749A1FB00318B0C25686A6822F0F6
:102548003F0242EA91426A6021680A6A22F03F0229
:1025580066684D4DAE424FD8013313430B62216874
:10256800CA6922F44F4222F0FF026568464B9D4239
:102578004CD8431E6D00B3FBF5F3013340F6FC70F5
:10258800034278D0C3F30B031A43CA6121680B686E
:1025980023F0C003E269206A024313430B602168F9
:1025A8008B6823F4034323F0FF032269E0680243A6
:1025B80013438B602168CB6823F0FF036269A0692D
:1025C80002431343CB602268136843F0010313608E
:1025D80000202064202384F83D30206384F83E00E6
:1025E80070BD80F83C30FEF73BFD82E7294B9842EE
:1025F8008CBF0023012399E74FF4967505FB03F37D
:10260800254DA5FB03539B090133A6E7A668BEB970
:10261800431E05EB450CB3FBFCF30133C3F30B037B
:10262800B3FA83F35B0943BBC6B9431E05EB450503
:10263800B3FBF5F30133C3F30B0343F40043A3E700
:10264800431E05EB850C0CEB8C0CB3FBFCF3013340
:10265800C3F30B03B3FA83F35B09E4E7431E05EB0B
:10266800850505EB8505B3FBF5F30133C3F30B03D0
:1026780043F4404388E7042386E7012384E70120E5
:1026880070470120ACE700BFA08601007F841E00D0
:1026980083DE1B43FF083D00D34D62102DE9F04354
:1026A80083B004460F46904699460C9EFFF774FC8B
:1026B800054694F83D00C0B2202803D0022003B09C
:1026C800BDE8F0830095192301224B492046FFF706
:1026D80096FC002840F0898094F83C30012B00F0EB
:1026E8008680012384F83C3023681A6812F0010FB1
:1026F80003D11A6842F001021A602268136823F4B1
:1027080000631360212384F83D30402384F83E3071
:10271800002323640A9B6362BDF82C306385638DB4
:102728002385364BE362019500964B46424639466F
:102738002046FFF753FD00285BD1238D002B35D0B1
:102748002A4631462046FFF71AFD20BB626A2368F5
:1027580012781A61626A531C6362218D013989B249
:102768002185638D9BB2013B9BB2638523685869C1
:1027780010F0040FE1D00029DFD052781A61636AA3
:1027880001336362238D013B2385638D9BB2013B3B
:102798009BB26385D1E7236C042B01D001208EE71F
:1027A8002268136843F400731360F7E72A4631463A
:1027B8002046FFF729FE50B1236C042B01D00120DD
:1027C8007DE72268136843F400731360F7E7226813
:1027D800136843F400731360202384F83D3000230A
:1027E80084F83E3084F83C3069E7022067E702202D
:1027F80065E7012063E700BF020010000000FFFF4B
:102808002DE9F04387B004460F4690469946109E3E
:10281800FFF7C2FB054694F83D00C0B2202804D05B
:102828000227384607B0BDE8F08300951923012236
:1028380088492046FFF7E3FB002840F04D8194F8D3
:102848003C30012B00F04A81012384F83C30236896
:102858001A6812F0010F03D11A6842F001021A60D7
:102868002268136823F400631360222384F83D3040
:10287800402384F83E30002323640E9B6362BDF836
:102888003C306385638D2385734BE3620195009625
:102898004B46424639462046FFF70CFD07460028BE
:1028A80040F01E81238D5BB9029323685A69029216
:1028B8009A690292029A1A6842F400721A6075E0E4
:1028C800012B0AD0022B1AD00023059323685A69DA
:1028D80005929B690593059B68E02268136823F4B9
:1028E800806313600023039323685A6903929A69EB
:1028F8000392039A1A6842F400721A6056E022683A
:10290800136823F4806313602268136843F4006338
:1029180013600023049323685A6904929B69049303
:10292800049B43E02A4631462046FFF79CFD0028D9
:1029380040F0D88023681A69636A1A70636A0133A1
:102948006362238D013B2385638D9BB2013B9BB260
:1029580063852BE000953346002240492046FFF767
:102968004EFB002840F0C0802268136843F40073CF
:10297800136023681A69636A1A70626A531C636277
:10298800238D013B2385638D9BB2013B9BB26385FD
:1029980023681B695370636A01336362238D013BAB
:1029A8002385638D9BB2013B9BB26385238D002BEE
:1029B80000F08980032B53D8012BB3D0022BC9D048
:1029C80000953346002225492046FFF718FB0028CA
:1029D80040F08C802268136823F4806313602368B6
:1029E8001A69636A1A70636A01336362238D013B53
:1029F8002385638D9BB2013B9BB26385009533466B
:102A0800002216492046FFF7FAFA002870D12268FA
:102A1800136843F40073136023681A69636A1A70B1
:102A2800626A531C6362238D013B2385638D9BB2CD
:102A3800013B9BB2638523681B695370636A01334A
:102A48006362238D013B2385638D9BB2013B9BB25F
:102A58006385ABE7020010000000FFFF04000100DF
:102A68002A4631462046FFF7FEFC002842D123685B
:102A78001A69636A1A70636A01336362228D013AC4
:102A880092B22285638D9BB2013B9BB2638523681A
:102A9800596911F0040F89D0032A0FD023681A69E5
:102AA800636A1A70636A01336362238D013B23856D
:102AB800638D9BB2013B9BB2638577E71A6822F46A
:102AC80080621A60EAE7202384F83D30002384F806
:102AD8003E3084F83C30A4E60227A2E60227A0E6AE
:102AE80001279EE601279CE601279AE6012798E63A
:102AF800012796E6012794E630B4026A036A23F0B8
:102B0800010303624568836923F073030C681C435F
:102B180022F002028B6813430B4A904206D04560AC
:102B280084614A684263036230BC704723F008033B
:102B3800CA681A4322F0040325F440754A692A43F7
:102B48008D691543EBE700BF0000014030B4036A0C
:102B5800026A22F4807202624468C26922F0730237
:102B68000D68154323F400738A6843EA02230D4A6B
:102B7800904206D04460C5614A68C263036230BCB3
:102B8800704723F40063CA6843EA022323F480638E
:102B980024F440544A6944EA02148A6944EA021453
:102BA800E8E700BF0000014030B4036A026A22F47B
:102BB800805202624468C26922F4E6420D6842EA21
:102BC800052223F400538D6843EA0533074DA842D4
:102BD80006D04460C2614A680264036230BC704730
:102BE80024F480444D6944EA8514F2E7000001406A
:102BF80010B4036A046A24F001040462846924F0AE
:102C0800F00C4CEA021223F00A030B4382610362C0
:102C18005DF8044B704730B4056A046A24F0100468
:102C28000462846924F4407C4CEA022C2CF4704C35
:102C38001B039BB243EA0C0325F0A005090101F030
:102C4800A00129438361016230BC704710B4036A54
:102C5800046A24F010040462846924F4704C4CEA79
:102C6800023223F0A00343EA0113826103625DF894
:102C7800044B704730B4056A046A24F48074046213
:102C8800C46924F0030C4CEA020C2CF0F00C1B0174
:102C9800DBB243EA0C0325F42065090201F4206144
:102CA8002943C361016230BC704730B4056A046AC5
:102CB80024F480540462C46924F4407C4CEA022C55
:102CC8002CF4704C1B039BB243EA0C0325F42045FB
:102CD800090301F420412943C361016230BC7047F4
:102CE800836823F070030B4343F007038360704746
:102CF800704770470C2914D8DFE801F00713131345
:102D08000A1313130D13131310000368586B70473D
:102D18000368986B70470368D86B70470368186C32
:102D2800704700207047704770477047704770B50C
:102D380004460368DE681D6915F0020F10D016F00E
:102D4800020F0DD06FF002021A61012303770368A6
:102D58009B6913F0030F5ED000F0E6FF0023237792
:102D680015F0040F12D016F0040F0FD023686FF07F
:102D780004021A610223237723689B6913F4407FB6
:102D88004FD0204600F0D0FF0023237715F0080F1E
:102D980012D016F0080F0FD023686FF008021A61DE
:102DA800042323772368DB6913F0030F40D0204600
:102DB80000F0BAFF0023237715F0100F12D016F099
:102DC800100F0FD023686FF010021A6108232377C1
:102DD8002368DB6913F4407F31D0204600F0A4FF5C
:102DE8000023237715F0010F02D016F0010F2DD123
:102DF80015F0800F02D016F0800F2FD115F0400F7C
:102E080002D016F0400F31D115F0200F02D016F085
:102E1800200F33D170BDFFF787FF2046FFF785FFEE
:102E28009CE72046FFF780FF2046FFF77EFFABE7D1
:102E38002046FFF779FF2046FFF777FFBAE72046DD
:102E4800FFF772FF2046FFF770FFC9E723686FF0AE
:102E580001021A612046FFF766FFC9E723686FF091
:102E680080021A61204600F022FCC7E723686FF051
:102E780040021A612046FFF759FFC5E723686FF043
:102E880020021A61204600F011FCC3E70368294AB2
:102E980090420ED0B0F1804F0BD0A2F57C42904208
:102EA80007D002F58062904203D002F5806290421A
:102EB80003D123F070034A6813431E4A90421AD084
:102EC800B0F1804F17D0A2F57C42904213D002F5A2
:102ED800806290420FD002F5806290420BD002F5DA
:102EE8009A32904207D002F58062904203D002F5F0
:102EF8008062904203D123F44073CA68134323F0DD
:102F080080034A69134303608B68C3620B6883625A
:102F1800084B98420AD001234361036913F0010F5B
:102F280003D0036923F00103036170470B6903634E
:102F3800F1E700BF0000014040B310B5044690F827
:102F48003D30F3B1022384F83D30214651F8040B9B
:102F5800FFF79CFF012384F8463084F83E3084F85C
:102F68003F3084F8403084F8413084F8423084F8A7
:102F7800433084F8443084F8453084F83D300020EC
:102F880010BD80F83C30FEF7A3F8DBE7012070475E
:102F980040B310B5044690F83D30F3B1022384F8ED
:102FA8003D30214651F8040BFFF770FF012384F8E8
:102FB800463084F83E3084F83F3084F8403084F856
:102FC800413084F8423084F8433084F8443084F83F
:102FD800453084F83D30002010BD80F83C30FFF7C4
:102FE80087FEDBE70120704740B310B5044690F830
:102FF8003D30F3B1022384F83D30214651F8040BEB
:10300800FFF744FF012384F8463084F83E3084F803
:103018003F3084F8403084F8413084F8423084F8F6
:10302800433084F8443084F8453084F83D3000203B
:1030380010BD80F83C30FFF75CFEDBE701207047ED
:1030480030B4036A026A22F010020262446882699C
:1030580022F4E6420D6842EA052223F020038D6837
:1030680043EA05130C4DA84206D0446082614A68C1
:103078008263036230BC704723F08003CD6843EA63
:10308800051323F0400324F440644D6944EA8504A1
:103098008D6944EA8504E8E70000014038B590F8F6
:1030A8003C30012B66D004460D46012380F83C30A5
:1030B8000C2A5AD8DFE802F0075959591B595959AF
:1030C8003059595944000068FFF716FD2268936982
:1030D80043F0080393612268936923F00403936122
:1030E8002268936929690B43936100203EE00068D8
:1030F800FFF7A6FF2268936943F40063936122688F
:10310800936923F48063936122689369296943EA88
:1031180001239361002029E00068FFF717FD22686A
:10312800D36943F00803D3612268D36923F0040309
:10313800D3612268D36929690B43D361002015E064
:103148000068FFF731FD2268D36943F40063D36157
:103158002268D36923F48063D3612268D36929691B
:1031680043EA0123D361002000E00120002384F812
:103178003C3038BD0220FCE770B49446066A046A05
:1031880024F0010404628469144DA84214D0B0F1FB
:10319800804F11D0124A90420ED002F580629042C0
:1031A8000AD002F58062904206D002F59A32904227
:1031B80002D044F0010203E024F0030242EA0C02C8
:1031C80022F0F0021B01DBB2134326F00A0201F0E1
:1031D8000A0111438361016270BC7047000001401D
:1031E8000004004038B590F83C30012B5ED004460E
:1031F8000D46012380F83C300C2A52D8DFE802F053
:1032080007515151195151512C5151513E00CB6820
:103218004A6809680068FFF7AFFF2268936923F0DE
:103228000C03936122689369A9680B43936100209A
:1032380038E0CB684A6809680068FFF7ECFC226848
:10324800936923F44063936122689369A96843EA08
:1032580001239361002025E0CB684A68096800686B
:10326800FFF708FD2268D36923F00C03D3612268B5
:10327800D369A9680B43D361002013E0CB684A687F
:1032880009680068FFF711FD2268D36923F44063D9
:10329800D3612268D369A96843EA0123D361002076
:1032A80000E00120002384F83C3038BD0220FCE710
:1032B80010B4846824F47F4C42EA03220A4342EAA9
:1032C8000C0282605DF8044B704790F83C30012B8B
:1032D80078D010B50446012380F83C30022380F8EA
:1032E8003D300268936823F47F4323F077039360AB
:1032F8000B68602B4CD023D8402B54D011D8202BEE
:1033080003D00AD80BB1102B05D119462068FFF756
:10331800E7FC002028E0012026E0302BF5D0012032
:1033280022E0502B0AD1CA6849680068FFF760FCA0
:1033380050212068FFF7D4FC002015E0012013E09D
:10334800B3F5805F3AD0B3F5005F14D0702B37D156
:10335800CB684A6889680068FFF7AAFF2268936803
:1033680043F0770393600020012384F83D30002365
:1033780084F83C3010BDCB684A6889680068FFF75C
:1033880097FF2268936843F4804393600020EBE73B
:10339800CA6849680068FFF759FC60212068FFF790
:1033A8009FFC0020E0E7CA6849680068FFF720FC36
:1033B80040212068FFF794FC0020D5E70020D3E7E0
:1033C8000120D1E70220704701F01F014FF0010CE6
:1033D8000CFA01FC036A23EA0C030362036A8A40BD
:1033E800134303627047000010B5044608460029DD
:1033F80032D194F83E30DBB2013B18BF0123002BD9
:1034080063D1002841D1022384F83E3001220146CD
:103418002068FFF7D9FF23682E4A934245D02368D6
:103428002C4A934246D0B3F1804F43D0A2F57C4258
:1034380093423FD002F5806293423BD002F580620E
:10344800934237D002F59A32934233D01A6842F049
:1034580001021A60002037E0042908D008290DD09D
:1034680094F84130DBB2013B18BF0123C7E794F859
:103478003F30DBB2013B18BF0123C0E794F840306E
:10348800DBB2013B18BF0123B9E7042805D008289F
:1034980007D0022384F84130B8E7022384F83F308C
:1034A800B4E7022384F84030B0E75A6C42F4004293
:1034B8005A64B4E79A6802F00702062A07D01A6825
:1034C80042F001021A60002010BD0120FCE7002034
:1034D800FAE700BF0000014010B504460B46F1B9F9
:1034E80090F83E00C0B253BB94F84220D2B20128F3
:1034F80040F09680012A40F0948083BB022184F832
:103508003E1084F842100C2B00F28C80DFE803F0A8
:10351800718A8A8A418A8A8A6B8A8A8A7700042908
:1035280005D0082907D090F84100C0B2DBE790F831
:103538003F00C0B2D7E790F84000C0B2D3E7042BF1
:1035480005D0082B07D094F84520D2B2CFE794F8DD
:103558004320D2B2CBE794F84420D2B2C7E7042B79
:103568000CD0082B0ED0022184F84110042B0DD06A
:10357800082B35D0022184F84510C4E7022184F8CD
:103588003F10F3E7022184F84010EFE7022284F8A5
:1035980043202168CA6842F00402CA600122194621
:1035A8002068FFF711FF2368204A93422DD0B3F11A
:1035B800804F2AD0A2F57C42934226D002F5806241
:1035C800934222D002F5806293421ED002F59A32CD
:1035D80093421AD01A6842F001021A60002020E0D3
:1035E800022284F844202168CA6842F00802CA60AE
:1035F800D4E72168CA6842F00202CA60CEE72168AF
:10360800CA6842F01002CA60C8E79A6802F0070266
:10361800062A09D01A6842F001021A60002000E068
:10362800012010BD1046FCE70020FAE70000014029
:1036380090F83C20012A35D010B40346012280F8C6
:103648003C20022280F83D2002685068946820F0EF
:10365800700C086840EA0C0050601A6812488242F0
:1036680012D0B2F1804F0FD0A0F57C4082420BD02F
:1036780000F58060824207D000F58060824203D066
:1036880000F59A30824204D124F08004496821432D
:103698009160012283F83D20002083F83C005DF80A
:1036A800044B704702207047000001407047704784
:1036B80010B504460268136923F44053C1680B43EC
:1036C8001361836802691A4343691A43C3691A4339
:1036D8000168CB6823F4164323F00C031343CB6033
:1036E8000268536923F4407381690B43536103688B
:1036F800314A934206D002F58062934202D0FEF727
:1037080079FA01E0FEF786FAE369B3F5004F29D0AC
:103718000021031849411B1841F10001C90041EA81
:103728005371DB00181863684FEA83024FEA9373FA
:1037380041F10001FDF74AF9204AA2FB003149098D
:10374800642303FB11031B013233A2FB03235B0930
:1037580003F0F00202EB011203F00F032168134497
:103768008B6010BD0023021843EB0301121841F1CE
:103778000001C90041EA5271D200101841F100015C
:10378800626892185B41FDF721F90C4AA2FB0031EF
:103798004909642303FB1103DB003233A2FB032333
:1037A8005B095A0002F4F87202EB011203F00703F6
:1037B800216813448B60D4E7001001401F85EB514A
:1037C80060B310B5044690F8413013B3242384F84D
:1037D80041302268D36823F40053D3602046FFF7B2
:1037E80067FF2268136923F49043136122685369C1
:1037F80023F02A0353612268D36843F40053D3604B
:1038080000206064202384F8413084F842306063EB
:1038180010BD80F84030FDF711FDD7E70120704753
:10382800034AD2F8883043F47003C2F888307047EE
:1038380000ED00E038B50C4D2B6800215963996301
:103848000A4C2368D96319642846FFF7CDFD042183
:103858002846FFF7C9FD08212046FFF7C5FD0C21C2
:103868002046FFF7C1FD38BD940100204C0100201F
:103878002DE9F04186B0044600238DF817308DF805
:10388800163042F210730293012301930DF11702CF
:1038980000927522D021FEF7B3FF9DF81730682BF0
:1038A80003D0002006B0BDE8F0814FF000088DF885
:1038B800168042F210770297012501950DF1160640
:1038C80000962B466B22D0212046FEF7E7FE8DF8A6
:1038D80016800297019500962B461922D021204682
:1038E800FEF7DCFE08238DF8163002970195009646
:1038F8002B461B22D0212046FEF7D0FE10238DF840
:1039080016300297019500962B461C22D02120469E
:10391800FEF7C4FE03238DF8163002970195009632
:103928002B461A22D0212046FEF7B8FE9DF8170034
:10393800B8E72DE9F0472DED088B8AB082468DED6A
:10394800020B51EC110B55EC124B9AED087BB0EEC3
:1039580047BAF0EE67BA53EC172BFCF71DFCDAE90F
:10396800066722462B46FCF7CFFD02460B4630463B
:103978003946FCF713FC41EC180BCAE90601DAE9F1
:103988000A899AED10AB22462B4651EC1A0BFCF72C
:10399800BBFD06460F46CDE900679AED0C6BB0EE0D
:1039A800469AF0EE669A53EC162BFCF7F5FBDAE92B
:1039B8000E6732463B46FCF7EFFBDAE90023FCF7DB
:1039C800EDFB22462B46FCF79FFD02460B46404680
:1039D8004946FCF7E3FB80468946CAE90A89DDE9DE
:1039E800002351EC190BFCF7D7FB0A460146CDE939
:1039F800041242EC161B8AED0C6BDDE900233046FD
:103A08003946FCF7C9FB41EC190BCAE90E012246FD
:103A18002B46DAE90201FCF777FD02460B4651EC2A
:103A28001A0BFCF7BBFB41EC1A0BCAE91001DAE9E7
:103A3800042340464946FCF7B1FB04460D460246BE
:103A48000B4640464946FCF789FE06460F46CDE937
:103A5800066722462B4651EC190BFCF77FFE0446FD
:103A68000D46CDE9084553EC182BDDE90201FCF7BA
:103A780093FB02460B46CDE9002330463946FCF756
:103A880043FD02460B4651EC180BFCF787FB41EC53
:103A9800180BCAE90601DDE9002320462946FCF790
:103AA80033FD02460B4651EC1B0BFCF777FBCAE9CA
:103AB800080132463B4640464946FCF725FD02468A
:103AC8000B4640464946FCF767FBCAE90A013246FD
:103AD8003B46DDE9046730463946FCF715FD0246EA
:103AE8000B4630463946FCF757FBCAE90C0122461B
:103AF8002B4640464946FCF707FD02460B4651EC6B
:103B0800190BFCF749FBCAE90E0122462B46304641
:103B18003946FCF7F9FC02460B4651EC1A0BFCF748
:103B28003BFBCAE91001B0EE480AF0EE680A0AB099
:103B3800BDEC088BBDE8F08710B52DED088B88B07B
:103B48000C4642F2107302930E23019304AB0093C8
:103B580001233B22D021FEF753FE9DF810209DF84B
:103B6800113043EA02231BB223809DF812109DF8FE
:103B7800132042EA012262809DF814109DF8152056
:103B880042EA0122A2809DF818109DF8192042EA05
:103B98000122E2809DF81A109DF81B2042EA0122BA
:103BA80022819DF81C109DF81D2042EA01226281A5
:103BB80007EE903AB8EEE78A9FED399A9FED36AB5B
:103BC800C8EE097A17EE900AFCF746FC41EC1B0B8D
:103BD80018EE100AFCF740FCB0EE4A2AF0EE6A2A0A
:103BE800B0EE4B1AF0EE6B1A41EC100B2D48FFF7B4
:103BF800A0FE51EC100BFCF799FE6062B4F902309C
:103C080008EE103AB8EEC88AC8EE097A17EE900A9C
:103C1800FCF722FC41EC1B0B18EE100AFCF71CFC0D
:103C2800B0EE4A2AF0EE6A2AB0EE4B1AF0EE6B1AA2
:103C380041EC100B1C48FFF77CFE51EC100BFCF715
:103C480075FEA062B4F9043008EE103AB8EEC88ADE
:103C5800C8EE097A17EE900AFCF7FEFB41EC190B47
:103C680018EE100AFCF7F8FBB0EE4A2AF0EE6A2AC2
:103C7800B0EE491AF0EE691A41EC100B0B48FFF749
:103C880058FE51EC100BFCF751FEE06208B0BDEC99
:103C9800088B10BDAFF300807B14AE47E17A843FF8
:103CA80000408345A000002058000020100000209C
:103CB800064A0023137053709370D370044A126835
:103CC8005362536A8342FCD3704700BFC802002086
:103CD800DC01002010B5114C01224FF48061204610
:103CE800FEF78CF80A20FFF7E3FF00224FF480610B
:103CF8002046FEF783F80A4B1B68DA6842F0020296
:103D0800DA60DA6842F00402DA60DA6842F008023F
:103D1800DA60DA6842F01002DA6010BD000402408E
:103D2800DC01002000000000F8B50368B3F1804F03
:103D380000D0F8BD0446037F013B072BF9D801A248
:103D480052F823F06D3D0008B93D00083B3D0008DE
:103D5800753D00083B3D00083B3D00083B3D000821
:103D6800B13D0008022700252E4602E008273D46FF
:103D78000226574B9B5D002B4AD129462046FEF769
:103D8800B9FF544B43F82600514B01229A559DB96F
:103D98002268136A23F00A0313621DBB2268136AA0
:103DA80043F002031362C4E710270C250326E0E75B
:103DB80004273D460126DCE7042D07D0082D0BD04B
:103DC8002268136A23F420431362E6E72268136A21
:103DD80023F0A0031362E0E72268136A23F4206348
:103DE8001362DAE7042D07D0082D0BD02268136A76
:103DF80043F4005313629CE72268136A43F02003DC
:103E0800136296E72268136A43F40073136290E71B
:103E180029462046FEF76EFF2F4B18602D4B53F8AE
:103E28002630C01A07EE900AF8EE677A17EE900A65
:103E3800FCF712FB24A3D3E90023FCF765FB00225F
:103E4800264BFCF761FBFCF771FD254B03EB860362
:103E580018601F4B00229A5575B92268136A23F01F
:103E68000A031362F5B923681A6A1A622268D368CA
:103E780023EA0703D3605CE7042D07D0082D0BD095
:103E88002268136A23F420431362EBE72268136A5B
:103E980023F0A0031362E5E72268136A23F4206382
:103EA8001362DFE7042D05D0082D07D023681A6AAE
:103EB8001A62DBE723681A6A1A62D7E723681A6A64
:103EC8001A62D3E7AFF30080006F8104C58FA13F6A
:103ED800C8020020DC020020C40200200000E03FED
:103EE800CC020020DFF834D0FFF79AFC0C480D49CB
:103EF8000D4A002302E0D458C4500433C4188C423D
:103F0800F9D30A4A0A4C002301E013600432A242A2
:103F1800FBD300F011F8FCF7EDFF7047000002201A
:103F280000000020E800002094420008E80000207B
:103F3800EC020020FEE7000070B50D4D0D4C641B2F
:103F4800A4100026A64209D10B4D0C4C00F07EF9B6
:103F5800641BA4100026A64205D170BD55F8043B89
:103F680098470136EEE755F8043B98470136F2E7E3
:103F78008C4200088C4200088C42000890420008DD
:103F880002440346934200D1704703F8011BF9E746
:103F98002DE9F047089D0E4604460F46002B4AD1EE
:103FA80094468C45B2FA82F260D942B1C2F120033C
:103FB800974020FA03F30CFA02FC1F4394404FEA9F
:103FC8001C4E1FFA8CF6B7FBFEF1230C0EFB117783
:103FD80043EA074301FB06F098420AD91CEB0303A6
:103FE80001F1FF3780F01581984240F212810239C1
:103FF80063441B1AA4B2B3FBFEF00EFB103344EA71
:10400800034400FB06F6A6420AD91CEB040400F19F
:10401800FF3380F00081A64240F2FD8064440238FC
:1040280040EA0140A41B00211DB1D4400023C5E98A
:104038000043BDE8F0878B4205D90DB1C5E9000101
:1040480000210846F5E7B3FA83F1002946D1B342C7
:1040580002D3824200F2F580841A66EB0302012043
:104068001746002DE5D0C5E90047E2E7002A40F0F1
:104078009380A1EB0C034FEA1C471FFA8CFE012129
:10408800B3FBF7F607FB1630230C43EA00430EFB9D
:1040980006F0984208D91CEB030306F1FF3802D258
:1040A800984200F2D08046461B1AA4B2B3FBF7F040
:1040B80007FB103344EA03440EFB00FEA64508D96B
:1040C8001CEB040400F1FF3302D2A64500F2B680CF
:1040D8001846A4EB0E0440EA0640A5E7C1F1200704
:1040E8008B4022FA07FC4CEA030C06FA01FE20FA80
:1040F80007F426FA07F344EA0E0400FA01F84FEA37
:104108001C404FEA1449B3FBF0FE1FFA8CF600FB83
:104118001E3349EA03430EFB06F9994502FA01F2F8
:104128000BD91CEB03030EF1FF3A80F0858099450B
:1041380040F28280AEF1020E6344A3EB0909A4B2F7
:10414800B9FBF0F300FB139944EA094403FB06F6B4
:10415800A64208D91CEB040403F1FF3068D2A6423A
:1041680066D9023B644443EA0E40A41BA0FB02E666
:10417800B4427346B14652D34FD05DB1B8EB030297
:1041880064EB090404FA07F722FA01F31F43CC4051
:10419800C5E9007400214CE7C2F1200120FA01F3BF
:1041A8000CFA02FC26FA01F1964033434FEA1C4709
:1041B8001FFA8CFEB1FBF7F007FB1016190C41EA49
:1041C800064100FB0EF68E4204FA02F408D91CEBF5
:1041D800010100F1FF382DD28E422BD902386144FB
:1041E800891B9BB2B1FBF7F607FB161143EA0143A3
:1041F80006FB0EF1994208D91CEB030306F1FF38C0
:1042080014D2994212D9023E63445B1A46EA00412D
:1042180036E73946EDE6184602E7F045ADD2BEEB83
:10422800020366EB0C060138B146A6E74646ECE702
:10423800034698E74046D3E7D6467EE7644402380B
:1042480047E708460DE7023E63442DE7F8B500BF8F
:10425800F8BC08BC9E467047F8B500BFF8BC08BC5F
:044268009E467047B7
:10426C000000000001020304000000000000000038
:08427C00010203040607080912
:0842840014FDFF7F01000000A2
:04428C00710A0008AB
:04429000490A0008CF
:1042940001000000100000000024F40000000000F1
:1042A400000000E04D62503F000000C07493683F7E
:1042B400000000E051B89E3F000000000000000034
:1042C40000000000000000000000000000000000EA
:1042D40000000000000000000000000000000000DA
:1042E4000000000000000000000000E04D62503FAC
:1042F400000000C07493683F000000E051B89E3F86
:1043040000000000000000000000000000000000A9
:104314000000000000000000000000000000000099
:104324000000000000000000000000000000000089
:10433400000000E04D62503F000000C07493683FED
:10434400000000E051B89E3F0000000000000000A3
:104354000000000000000000000000000000000059
:104364000000000000000000000000000000000049
:08437400000000000000000041
:0400000508003EEDC4
:00000001FF
